{
  "address": "0xd4Aa5B86b4DD1A581ce605DB1A8E4B29e317CC30",
  "abi": [
    {
      "inputs": [],
      "stateMutability": "nonpayable",
      "type": "constructor"
    },
    {
      "anonymous": false,
      "inputs": [
        {
          "indexed": false,
          "internalType": "address",
          "name": "user",
          "type": "address"
        },
        {
          "indexed": false,
          "internalType": "string",
          "name": "requirements",
          "type": "string"
        }
      ],
      "name": "CustomRequirementsUpdated",
      "type": "event"
    },
    {
      "anonymous": false,
      "inputs": [
        {
          "indexed": false,
          "internalType": "string",
          "name": "listingID",
          "type": "string"
        },
        {
          "indexed": false,
          "internalType": "address",
          "name": "owner",
          "type": "address"
        }
      ],
      "name": "ServiceCompleted",
      "type": "event"
    },
    {
      "anonymous": false,
      "inputs": [
        {
          "indexed": false,
          "internalType": "string",
          "name": "listingID",
          "type": "string"
        },
        {
          "components": [
            {
              "internalType": "string",
              "name": "title",
              "type": "string"
            },
            {
              "internalType": "string",
              "name": "description",
              "type": "string"
            },
            {
              "internalType": "string",
              "name": "location",
              "type": "string"
            },
            {
              "internalType": "string",
              "name": "completionRequirements",
              "type": "string"
            },
            {
              "internalType": "string",
              "name": "termsOfService",
              "type": "string"
            },
            {
              "internalType": "string",
              "name": "image",
              "type": "string"
            },
            {
              "internalType": "uint256",
              "name": "price",
              "type": "uint256"
            },
            {
              "internalType": "uint32",
              "name": "timeValidity",
              "type": "uint32"
            },
            {
              "internalType": "uint32",
              "name": "quantity",
              "type": "uint32"
            },
            {
              "internalType": "address payable",
              "name": "creatorWallet",
              "type": "address"
            },
            {
              "internalType": "bool",
              "name": "isCompleted",
              "type": "bool"
            }
          ],
          "indexed": false,
          "internalType": "struct ServiceContract.ServiceData",
          "name": "service",
          "type": "tuple"
        }
      ],
      "name": "ServiceDataFetched",
      "type": "event"
    },
    {
      "anonymous": false,
      "inputs": [
        {
          "indexed": false,
          "internalType": "string",
          "name": "listingID",
          "type": "string"
        },
        {
          "indexed": false,
          "internalType": "address",
          "name": "owner",
          "type": "address"
        },
        {
          "indexed": false,
          "internalType": "uint256",
          "name": "price",
          "type": "uint256"
        },
        {
          "indexed": false,
          "internalType": "uint32",
          "name": "quantity",
          "type": "uint32"
        }
      ],
      "name": "ServiceListed",
      "type": "event"
    },
    {
      "anonymous": false,
      "inputs": [
        {
          "indexed": false,
          "internalType": "address",
          "name": "user",
          "type": "address"
        },
        {
          "indexed": false,
          "internalType": "string",
          "name": "serviceLocation",
          "type": "string"
        }
      ],
      "name": "ServiceLocationUpdated",
      "type": "event"
    },
    {
      "anonymous": false,
      "inputs": [
        {
          "indexed": false,
          "internalType": "string",
          "name": "listingID",
          "type": "string"
        },
        {
          "indexed": false,
          "internalType": "address",
          "name": "buyer",
          "type": "address"
        },
        {
          "indexed": false,
          "internalType": "uint32",
          "name": "quantity",
          "type": "uint32"
        }
      ],
      "name": "ServicePurchased",
      "type": "event"
    },
    {
      "inputs": [
        {
          "internalType": "string",
          "name": "_listingID",
          "type": "string"
        },
        {
          "internalType": "address",
          "name": "clientWallet",
          "type": "address"
        }
      ],
      "name": "confirmCompletion",
      "outputs": [],
      "stateMutability": "nonpayable",
      "type": "function"
    },
    {
      "inputs": [
        {
          "internalType": "string",
          "name": "_title",
          "type": "string"
        },
        {
          "internalType": "string",
          "name": "_description",
          "type": "string"
        },
        {
          "internalType": "string",
          "name": "_location",
          "type": "string"
        },
        {
          "internalType": "string",
          "name": "_completionRequirements",
          "type": "string"
        },
        {
          "internalType": "string",
          "name": "_termsOfService",
          "type": "string"
        },
        {
          "internalType": "string",
          "name": "_image",
          "type": "string"
        },
        {
          "internalType": "uint256",
          "name": "_price",
          "type": "uint256"
        },
        {
          "internalType": "uint32",
          "name": "_timeValidity",
          "type": "uint32"
        },
        {
          "internalType": "uint32",
          "name": "_quantity",
          "type": "uint32"
        },
        {
          "internalType": "string",
          "name": "_listingID",
          "type": "string"
        }
      ],
      "name": "createService",
      "outputs": [],
      "stateMutability": "nonpayable",
      "type": "function"
    },
    {
      "inputs": [],
      "name": "getAllListings",
      "outputs": [
        {
          "internalType": "string[]",
          "name": "",
          "type": "string[]"
        }
      ],
      "stateMutability": "view",
      "type": "function"
    },
    {
      "inputs": [],
      "name": "getAllServiceData",
      "outputs": [
        {
          "internalType": "string[]",
          "name": "",
          "type": "string[]"
        },
        {
          "components": [
            {
              "internalType": "string",
              "name": "title",
              "type": "string"
            },
            {
              "internalType": "string",
              "name": "description",
              "type": "string"
            },
            {
              "internalType": "string",
              "name": "location",
              "type": "string"
            },
            {
              "internalType": "string",
              "name": "completionRequirements",
              "type": "string"
            },
            {
              "internalType": "string",
              "name": "termsOfService",
              "type": "string"
            },
            {
              "internalType": "string",
              "name": "image",
              "type": "string"
            },
            {
              "internalType": "uint256",
              "name": "price",
              "type": "uint256"
            },
            {
              "internalType": "uint32",
              "name": "timeValidity",
              "type": "uint32"
            },
            {
              "internalType": "uint32",
              "name": "quantity",
              "type": "uint32"
            },
            {
              "internalType": "address payable",
              "name": "creatorWallet",
              "type": "address"
            },
            {
              "internalType": "bool",
              "name": "isCompleted",
              "type": "bool"
            }
          ],
          "internalType": "struct ServiceContract.ServiceData[]",
          "name": "",
          "type": "tuple[]"
        }
      ],
      "stateMutability": "view",
      "type": "function"
    },
    {
      "inputs": [
        {
          "internalType": "address",
          "name": "user",
          "type": "address"
        }
      ],
      "name": "getCustomRequirements",
      "outputs": [
        {
          "internalType": "string",
          "name": "",
          "type": "string"
        }
      ],
      "stateMutability": "view",
      "type": "function"
    },
    {
      "inputs": [
        {
          "internalType": "string",
          "name": "listingID",
          "type": "string"
        }
      ],
      "name": "getServiceData",
      "outputs": [
        {
          "components": [
            {
              "internalType": "string",
              "name": "title",
              "type": "string"
            },
            {
              "internalType": "string",
              "name": "description",
              "type": "string"
            },
            {
              "internalType": "string",
              "name": "location",
              "type": "string"
            },
            {
              "internalType": "string",
              "name": "completionRequirements",
              "type": "string"
            },
            {
              "internalType": "string",
              "name": "termsOfService",
              "type": "string"
            },
            {
              "internalType": "string",
              "name": "image",
              "type": "string"
            },
            {
              "internalType": "uint256",
              "name": "price",
              "type": "uint256"
            },
            {
              "internalType": "uint32",
              "name": "timeValidity",
              "type": "uint32"
            },
            {
              "internalType": "uint32",
              "name": "quantity",
              "type": "uint32"
            },
            {
              "internalType": "address payable",
              "name": "creatorWallet",
              "type": "address"
            },
            {
              "internalType": "bool",
              "name": "isCompleted",
              "type": "bool"
            }
          ],
          "internalType": "struct ServiceContract.ServiceData",
          "name": "",
          "type": "tuple"
        }
      ],
      "stateMutability": "view",
      "type": "function"
    },
    {
      "inputs": [
        {
          "internalType": "address",
          "name": "user",
          "type": "address"
        }
      ],
      "name": "getServiceLocation",
      "outputs": [
        {
          "internalType": "string",
          "name": "",
          "type": "string"
        }
      ],
      "stateMutability": "view",
      "type": "function"
    },
    {
      "inputs": [
        {
          "internalType": "uint256",
          "name": "",
          "type": "uint256"
        }
      ],
      "name": "listingsArray",
      "outputs": [
        {
          "internalType": "string",
          "name": "",
          "type": "string"
        }
      ],
      "stateMutability": "view",
      "type": "function"
    },
    {
      "inputs": [
        {
          "internalType": "string",
          "name": "_listingID",
          "type": "string"
        },
        {
          "internalType": "uint32",
          "name": "_quantity",
          "type": "uint32"
        }
      ],
      "name": "purchaseService",
      "outputs": [],
      "stateMutability": "payable",
      "type": "function"
    },
    {
      "inputs": [
        {
          "internalType": "string",
          "name": "",
          "type": "string"
        }
      ],
      "name": "services",
      "outputs": [
        {
          "internalType": "string",
          "name": "title",
          "type": "string"
        },
        {
          "internalType": "string",
          "name": "description",
          "type": "string"
        },
        {
          "internalType": "string",
          "name": "location",
          "type": "string"
        },
        {
          "internalType": "string",
          "name": "completionRequirements",
          "type": "string"
        },
        {
          "internalType": "string",
          "name": "termsOfService",
          "type": "string"
        },
        {
          "internalType": "string",
          "name": "image",
          "type": "string"
        },
        {
          "internalType": "uint256",
          "name": "price",
          "type": "uint256"
        },
        {
          "internalType": "uint32",
          "name": "timeValidity",
          "type": "uint32"
        },
        {
          "internalType": "uint32",
          "name": "quantity",
          "type": "uint32"
        },
        {
          "internalType": "address payable",
          "name": "creatorWallet",
          "type": "address"
        },
        {
          "internalType": "bool",
          "name": "isCompleted",
          "type": "bool"
        }
      ],
      "stateMutability": "view",
      "type": "function"
    },
    {
      "inputs": [
        {
          "internalType": "string",
          "name": "_requirements",
          "type": "string"
        }
      ],
      "name": "setCustomRequirements",
      "outputs": [],
      "stateMutability": "nonpayable",
      "type": "function"
    },
    {
      "inputs": [
        {
          "internalType": "string",
          "name": "_serviceLocation",
          "type": "string"
        }
      ],
      "name": "setServiceLocation",
      "outputs": [],
      "stateMutability": "nonpayable",
      "type": "function"
    }
  ],
  "transactionHash": "0x491cca14692737e4eb2dc0a3cf1f9f0760fff2d320a385add5cffb577196b298",
  "args": [],
  "numDeployments": 1,
  "solcInputHash": "1028f334fc667ab1b2735ad8fe493d0b",
  "bytecode": "0x608060405234801561001057600080fd5b5060008054336001600160a01b031991821681178355600180549092161790556128a790819061004090396000f3fe6080604052600436106100a75760003560e01c806393f25d1e1161006457806393f25d1e1461019b5780639af1a80d146101bb578063ae73ccec146101de578063cdf0ed1314610200578063d4b07fbd14610220578063e0e4e05214610240576100a7565b8063249076f7146100ac5780633017ba09146100e257806336e9a6241461011957806348fb8c221461013b5780636e19a94f1461016857806385440d1c14610188575b600080fd5b3480156100b857600080fd5b506100cc6100c7366004611c6e565b610260565b6040516100d99190612768565b60405180910390f35b3480156100ee57600080fd5b506101026100fd366004611c6e565b6106bd565b6040516100d99b9a9998979695949392919061228b565b34801561012557600080fd5b50610139610134366004611c6e565b610a66565b005b34801561014757600080fd5b5061015b610156366004611e78565b610ac3565b6040516100d991906121d7565b34801561017457600080fd5b5061015b610183366004611c4d565b610b6f565b610139610196366004611e35565b610c5e565b3480156101a757600080fd5b506101396101b6366004611cf5565b610dac565b3480156101c757600080fd5b506101d06110a7565b6040516100d9929190612167565b3480156101ea57600080fd5b506101f3611651565b6040516100d99190612154565b34801561020c57600080fd5b5061015b61021b366004611c4d565b61172a565b34801561022c57600080fd5b5061013961023b366004611c6e565b611794565b34801561024c57600080fd5b5061013961025b366004611ca9565b6117e6565b610268611a97565b60006001600160a01b031660038360405161028391906120a5565b908152604051908190036020019020600701546001600160a01b03600160401b9091041614156102ce5760405162461bcd60e51b81526004016102c590612464565b60405180910390fd5b6003826040516102de91906120a5565b908152602001604051809103902060405180610160016040529081600082018054610308906127ef565b80601f0160208091040260200160405190810160405280929190818152602001828054610334906127ef565b80156103815780601f1061035657610100808354040283529160200191610381565b820191906000526020600020905b81548152906001019060200180831161036457829003601f168201915b5050505050815260200160018201805461039a906127ef565b80601f01602080910402602001604051908101604052809291908181526020018280546103c6906127ef565b80156104135780601f106103e857610100808354040283529160200191610413565b820191906000526020600020905b8154815290600101906020018083116103f657829003601f168201915b5050505050815260200160028201805461042c906127ef565b80601f0160208091040260200160405190810160405280929190818152602001828054610458906127ef565b80156104a55780601f1061047a576101008083540402835291602001916104a5565b820191906000526020600020905b81548152906001019060200180831161048857829003601f168201915b505050505081526020016003820180546104be906127ef565b80601f01602080910402602001604051908101604052809291908181526020018280546104ea906127ef565b80156105375780601f1061050c57610100808354040283529160200191610537565b820191906000526020600020905b81548152906001019060200180831161051a57829003601f168201915b50505050508152602001600482018054610550906127ef565b80601f016020809104026020016040519081016040528092919081815260200182805461057c906127ef565b80156105c95780601f1061059e576101008083540402835291602001916105c9565b820191906000526020600020905b8154815290600101906020018083116105ac57829003601f168201915b505050505081526020016005820180546105e2906127ef565b80601f016020809104026020016040519081016040528092919081815260200182805461060e906127ef565b801561065b5780601f106106305761010080835404028352916020019161065b565b820191906000526020600020905b81548152906001019060200180831161063e57829003601f168201915b50505091835250506006820154602082015260079091015463ffffffff80821660408401526401000000008204166060830152600160401b81046001600160a01b03166080830152600160e01b900460ff16151560a09091015290505b919050565b80516020818301810180516003825292820191909301209152805481906106e3906127ef565b80601f016020809104026020016040519081016040528092919081815260200182805461070f906127ef565b801561075c5780601f106107315761010080835404028352916020019161075c565b820191906000526020600020905b81548152906001019060200180831161073f57829003601f168201915b505050505090806001018054610771906127ef565b80601f016020809104026020016040519081016040528092919081815260200182805461079d906127ef565b80156107ea5780601f106107bf576101008083540402835291602001916107ea565b820191906000526020600020905b8154815290600101906020018083116107cd57829003601f168201915b5050505050908060020180546107ff906127ef565b80601f016020809104026020016040519081016040528092919081815260200182805461082b906127ef565b80156108785780601f1061084d57610100808354040283529160200191610878565b820191906000526020600020905b81548152906001019060200180831161085b57829003601f168201915b50505050509080600301805461088d906127ef565b80601f01602080910402602001604051908101604052809291908181526020018280546108b9906127ef565b80156109065780601f106108db57610100808354040283529160200191610906565b820191906000526020600020905b8154815290600101906020018083116108e957829003601f168201915b50505050509080600401805461091b906127ef565b80601f0160208091040260200160405190810160405280929190818152602001828054610947906127ef565b80156109945780601f1061096957610100808354040283529160200191610994565b820191906000526020600020905b81548152906001019060200180831161097757829003601f168201915b5050505050908060050180546109a9906127ef565b80601f01602080910402602001604051908101604052809291908181526020018280546109d5906127ef565b8015610a225780601f106109f757610100808354040283529160200191610a22565b820191906000526020600020905b815481529060010190602001808311610a0557829003601f168201915b50505050600683015460079093015491929163ffffffff808216925064010000000082041690600160401b81046001600160a01b031690600160e01b900460ff168b565b3360009081526005602090815260409091208251610a8692840190611b08565b507fba2118a50cbbf36400f4f413b1f7c6c01bae885b520bccb5d9b04870967de33c3382604051610ab8929190612130565b60405180910390a150565b60028181548110610ad357600080fd5b906000526020600020016000915090508054610aee906127ef565b80601f0160208091040260200160405190810160405280929190818152602001828054610b1a906127ef565b8015610b675780601f10610b3c57610100808354040283529160200191610b67565b820191906000526020600020905b815481529060010190602001808311610b4a57829003601f168201915b505050505081565b6001600160a01b038116600090815260066020526040812080546060929190610b97906127ef565b905011610bb65760405162461bcd60e51b81526004016102c5906125bd565b6001600160a01b03821660009081526006602052604090208054610bd9906127ef565b80601f0160208091040260200160405190810160405280929190818152602001828054610c05906127ef565b8015610c525780601f10610c2757610100808354040283529160200191610c52565b820191906000526020600020905b815481529060010190602001808311610c3557829003601f168201915b50505050509050919050565b6000600383604051610c7091906120a5565b908152604051908190036020019020600781015490915063ffffffff64010000000090910481169083161115610cb85760405162461bcd60e51b81526004016102c5906126e1565b8163ffffffff168160060154610cce919061277b565b3414610cec5760405162461bcd60e51b81526004016102c590612494565b818160070160048282829054906101000a900463ffffffff16610d0f919061279a565b92506101000a81548163ffffffff021916908363ffffffff16021790555033600484604051610d3e91906120a5565b90815260405190819003602001812080546001600160a01b03939093166001600160a01b0319909316929092179091557f72315a13232dfaf416749785faf573a7247431c6384d243d27594c1059a5b92e90610d9f90859033908690612252565b60405180910390a1505050565b60006001600160a01b0316600382604051610dc791906120a5565b908152604051908190036020019020600701546001600160a01b03600160401b9091041614610e085760405162461bcd60e51b81526004016102c590612673565b6040518061016001604052808b81526020018a81526020018981526020018881526020018781526020018681526020018581526020018463ffffffff1681526020018363ffffffff168152602001336001600160a01b0316815260200160001515815250600382604051610e7c91906120a5565b90815260200160405180910390206000820151816000019080519060200190610ea6929190611b08565b506020828101518051610ebf9260018501920190611b08565b5060408201518051610edb916002840191602090910190611b08565b5060608201518051610ef7916003840191602090910190611b08565b5060808201518051610f13916004840191602090910190611b08565b5060a08201518051610f2f916005840191602090910190611b08565b5060c0820151600682015560e082015160079091018054610100840151610120850151610140909501511515600160e01b0260ff60e01b196001600160a01b03909616600160401b0268010000000000000000600160e01b031963ffffffff9384166401000000000267ffffffff00000000199490971663ffffffff1990951694909417929092169490941791909116179290921617905560028054600181018255600091909152815161100a917f405787fa12a823e0f2b7631cc41b3ba8828b3321ca811111fa75cd3aa3bb5ace01906020840190611b08565b507f416821e2db0d41ddfde7a3f0572ce5e3554d57aa7a38b1fffd8b50367b5e6b1c813386856040516110409493929190612214565b60405180910390a17f10992061d9c37b020da20b7b747b61094ffd24c32ec2140ed41939c73d8ae2858160038360405161107a91906120a5565b9081526040519081900360200181206110939291612352565b60405180910390a150505050505050505050565b600254606090819060008167ffffffffffffffff8111156110d857634e487b7160e01b600052604160045260246000fd5b60405190808252806020026020018201604052801561111157816020015b6110fe611a97565b8152602001906001900390816110f65790505b50905060005b828110156115705760036002828154811061114257634e487b7160e01b600052603260045260246000fd5b9060005260206000200160405161115991906120c1565b908152602001604051809103902060405180610160016040529081600082018054611183906127ef565b80601f01602080910402602001604051908101604052809291908181526020018280546111af906127ef565b80156111fc5780601f106111d1576101008083540402835291602001916111fc565b820191906000526020600020905b8154815290600101906020018083116111df57829003601f168201915b50505050508152602001600182018054611215906127ef565b80601f0160208091040260200160405190810160405280929190818152602001828054611241906127ef565b801561128e5780601f106112635761010080835404028352916020019161128e565b820191906000526020600020905b81548152906001019060200180831161127157829003601f168201915b505050505081526020016002820180546112a7906127ef565b80601f01602080910402602001604051908101604052809291908181526020018280546112d3906127ef565b80156113205780601f106112f557610100808354040283529160200191611320565b820191906000526020600020905b81548152906001019060200180831161130357829003601f168201915b50505050508152602001600382018054611339906127ef565b80601f0160208091040260200160405190810160405280929190818152602001828054611365906127ef565b80156113b25780601f10611387576101008083540402835291602001916113b2565b820191906000526020600020905b81548152906001019060200180831161139557829003601f168201915b505050505081526020016004820180546113cb906127ef565b80601f01602080910402602001604051908101604052809291908181526020018280546113f7906127ef565b80156114445780601f1061141957610100808354040283529160200191611444565b820191906000526020600020905b81548152906001019060200180831161142757829003601f168201915b5050505050815260200160058201805461145d906127ef565b80601f0160208091040260200160405190810160405280929190818152602001828054611489906127ef565b80156114d65780601f106114ab576101008083540402835291602001916114d6565b820191906000526020600020905b8154815290600101906020018083116114b957829003601f168201915b50505091835250506006820154602082015260079091015463ffffffff80821660408401526401000000008204166060830152600160401b81046001600160a01b03166080830152600160e01b900460ff16151560a090910152825183908390811061155257634e487b7160e01b600052603260045260246000fd5b602002602001018190525080806115689061282a565b915050611117565b5060028181805480602002602001604051908101604052809291908181526020016000905b828210156116415783829060005260206000200180546115b4906127ef565b80601f01602080910402602001604051908101604052809291908181526020018280546115e0906127ef565b801561162d5780601f106116025761010080835404028352916020019161162d565b820191906000526020600020905b81548152906001019060200180831161161057829003601f168201915b505050505081526020019060010190611595565b5050505091509350935050509091565b60606002805480602002602001604051908101604052809291908181526020016000905b82821015611721578382906000526020600020018054611694906127ef565b80601f01602080910402602001604051908101604052809291908181526020018280546116c0906127ef565b801561170d5780601f106116e25761010080835404028352916020019161170d565b820191906000526020600020905b8154815290600101906020018083116116f057829003601f168201915b505050505081526020019060010190611675565b50505050905090565b6001600160a01b038116600090815260056020526040812080546060929190611752906127ef565b9050116117715760405162461bcd60e51b81526004016102c590612550565b6001600160a01b03821660009081526005602052604090208054610bd9906127ef565b33600090815260066020908152604090912082516117b492840190611b08565b507fb764913240e989050dc5d09fd70c3e9d7f8fbbce9f08a4222d238432bbc5ffbb3382604051610ab8929190612130565b6003826040516117f691906120a5565b90815260405160209181900391909101902060070154600160401b90046001600160a01b0316331461183a5760405162461bcd60e51b81526004016102c590612718565b60038260405161184a91906120a5565b9081526040519081900360200190206007015460ff600160e01b90910416156118855760405162461bcd60e51b81526004016102c5906124cb565b600060048360405161189791906120a5565b908152604051908190036020019020546001600160a01b039081169150821681146118d45760405162461bcd60e51b81526004016102c590612502565b6001600160a01b0381166118fa5760405162461bcd60e51b81526004016102c5906126aa565b6001600160a01b0381166000908152600560205260408120805461191d906127ef565b80601f0160208091040260200160405190810160405280929190818152602001828054611949906127ef565b80156119965780601f1061196b57610100808354040283529160200191611996565b820191906000526020600020905b81548152906001019060200180831161197957829003601f168201915b5050505050905060008151116119be5760405162461bcd60e51b81526004016102c59061262e565b60016003856040516119d091906120a5565b9081526040519081900360200181206007018054921515600160e01b0260ff60e01b1990931692909217909155600390611a0b9086906120a5565b908152604051908190036020018120600701546001600160a01b03600160401b90910416904780156108fc02916000818181858888f19350505050158015611a57573d6000803e3d6000fd5b507fdcde1585e07c17affe7826d5641edcbcf609c0fcd6c088d3596f0a53c890775d8433604051611a899291906121ea565b60405180910390a150505050565b60405180610160016040528060608152602001606081526020016060815260200160608152602001606081526020016060815260200160008152602001600063ffffffff168152602001600063ffffffff16815260200160006001600160a01b031681526020016000151581525090565b828054611b14906127ef565b90600052602060002090601f016020900481019282611b365760008555611b7c565b82601f10611b4f57805160ff1916838001178555611b7c565b82800160010185558215611b7c579182015b82811115611b7c578251825591602001919060010190611b61565b50611b88929150611b8c565b5090565b5b80821115611b885760008155600101611b8d565b80356001600160a01b03811681146106b857600080fd5b600082601f830112611bc8578081fd5b813567ffffffffffffffff80821115611be357611be361285b565b604051601f8301601f191681016020018281118282101715611c0757611c0761285b565b604052828152848301602001861015611c1e578384fd5b82602086016020830137918201602001929092529392505050565b803563ffffffff811681146106b857600080fd5b600060208284031215611c5e578081fd5b611c6782611ba1565b9392505050565b600060208284031215611c7f578081fd5b813567ffffffffffffffff811115611c95578182fd5b611ca184828501611bb8565b949350505050565b60008060408385031215611cbb578081fd5b823567ffffffffffffffff811115611cd1578182fd5b611cdd85828601611bb8565b925050611cec60208401611ba1565b90509250929050565b6000806000806000806000806000806101408b8d031215611d14578586fd5b8a3567ffffffffffffffff80821115611d2b578788fd5b611d378e838f01611bb8565b9b5060208d0135915080821115611d4c578788fd5b611d588e838f01611bb8565b9a5060408d0135915080821115611d6d578788fd5b611d798e838f01611bb8565b995060608d0135915080821115611d8e578788fd5b611d9a8e838f01611bb8565b985060808d0135915080821115611daf578788fd5b611dbb8e838f01611bb8565b975060a08d0135915080821115611dd0578687fd5b611ddc8e838f01611bb8565b965060c08d01359550611df160e08e01611c39565b9450611e006101008e01611c39565b93506101208d0135915080821115611e16578283fd5b50611e238d828e01611bb8565b9150509295989b9194979a5092959850565b60008060408385031215611e47578182fd5b823567ffffffffffffffff811115611e5d578283fd5b611e6985828601611bb8565b925050611cec60208401611c39565b600060208284031215611e89578081fd5b5035919050565b6001600160a01b03169052565b60008282518085526020808601955080818302840101818601855b84811015611ee657601f19868403018952611ed4838351611ef9565b98840198925090830190600101611eb8565b5090979650505050505050565b15159052565b60008151808452611f118160208601602086016127bf565b601f01601f19169290920160200192915050565b60008154611f32816127ef565b808552602060018381168015611f4f5760018114611f6357611f91565b60ff19851688840152604088019550611f91565b866000528260002060005b85811015611f895781548a8201860152908301908401611f6e565b890184019650505b505050505092915050565b60006101608251818552611fb282860182611ef9565b91505060208301518482036020860152611fcc8282611ef9565b91505060408301518482036040860152611fe68282611ef9565b915050606083015184820360608601526120008282611ef9565b9150506080830151848203608086015261201a8282611ef9565b91505060a083015184820360a08601526120348282611ef9565b91505060c083015160c085015260e083015161205360e086018261209b565b50610100808401516120678287018261209b565b50506101208084015161207c82870182611e90565b50506101408084015161209182870182611ef3565b5090949350505050565b63ffffffff169052565b600082516120b78184602087016127bf565b9190910192915050565b60008083546120cf816127ef565b600182811680156120e757600181146120f857612124565b60ff19841687528287019450612124565b8786526020808720875b8581101561211b5781548a820152908401908201612102565b50505082870194505b50929695505050505050565b6001600160a01b0383168152604060208201819052600090611ca190830184611ef9565b600060208252611c676020830184611e9d565b60006040825261217a6040830185611e9d565b602083820381850152818551808452828401915082838202850101838801865b838110156121c857601f198784030185526121b6838351611f9c565b9486019492509085019060010161219a565b50909998505050505050505050565b600060208252611c676020830184611ef9565b6000604082526121fd6040830185611ef9565b905060018060a01b03831660208301529392505050565b6000608082526122276080830187611ef9565b6001600160a01b0395909516602083015250604081019290925263ffffffff16606090910152919050565b6000606082526122656060830186611ef9565b6001600160a01b039490941660208301525063ffffffff91909116604090910152919050565b600061016080835261229f8184018f611ef9565b905082810360208401526122b3818e611ef9565b905082810360408401526122c7818d611ef9565b905082810360608401526122db818c611ef9565b905082810360808401526122ef818b611ef9565b905082810360a0840152612303818a611ef9565b9150508660c083015263ffffffff861660e083015261232661010083018661209b565b612334610120830185611e90565b612342610140830184611ef3565b9c9b505050505050505050505050565b6000604082526123656040830185611ef9565b828103602084015261016080825261237f81830186611f25565b905081810360208301526123968160018701611f25565b905081810360408301526123ad8160028701611f25565b905081810360608301526123c48160038701611f25565b905081810360808301526123db8160048701611f25565b905081810360a08301526123f28160058701611f25565b9050600685015460c0830152600785015463ffffffff61241760e0850182841661209b565b61242a6101008501828460201c1661209b565b506124466101208401604083901c6001600160a01b0316611e90565b61245a610140840160ff8360e01c16611ef3565b5095945050505050565b60208082526016908201527514d95c9d9a58d948191bd95cc81b9bdd08195e1a5cdd60521b604082015260600190565b6020808252601e908201527f496e636f727265637420616d6f756e74206f662045746865722073656e740000604082015260600190565b60208082526019908201527f5365727669636520616c726561647920636f6d706c6574656400000000000000604082015260600190565b6020808252602e908201527f436c69656e742077616c6c6574206164647265737320646f6573206e6f74206d60408201526d30ba31b4103a343290313abcb2b960911b606082015260800190565b60208082526047908201527f4e6f2073657276696365206c6f636174696f6e2073657420627920746869732060408201527f757365722e2041726520796f75207375726520746865792068617665207075726060820152666368617365643f60c81b608082015260a00190565b6020808252604b908201527f4e6f20637573746f6d20726571756972656d656e74732073657420666f72207460408201527f68697320757365722e2041726520796f7520737572652074686579206861766560608201526a207075726368617365643f60a81b608082015260a00190565b60208082526025908201527f436c69656e7420686173206e6f742073657420612073657276696365206c6f6360408201526430ba34b7b760d91b606082015260800190565b60208082526019908201527f4c697374696e6720494420616c72656164792065786973747300000000000000604082015260600190565b6020808252601f908201527f4e6f20627579657220666f756e6420666f722074686973206c697374696e6700604082015260600190565b6020808252601d908201527f4e6f7420656e6f75676820736572766963657320617661696c61626c65000000604082015260600190565b60208082526030908201527f4f6e6c792074686520736572766963652070726f76696465722063616e20636f60408201526f373334b9369031b7b6b83632ba34b7b760811b606082015260800190565b600060208252611c676020830184611f9c565b600081600019048311821515161561279557612795612845565b500290565b600063ffffffff838116908316818110156127b7576127b7612845565b039392505050565b60005b838110156127da5781810151838201526020016127c2565b838111156127e9576000848401525b50505050565b60028104600182168061280357607f821691505b6020821081141561282457634e487b7160e01b600052602260045260246000fd5b50919050565b600060001982141561283e5761283e612845565b5060010190565b634e487b7160e01b600052601160045260246000fd5b634e487b7160e01b600052604160045260246000fdfea2646970667358221220819eabcf3d4a1e294bbf0d2f673bfe5a3b62ccdfbebd32b7d8d8961522a4aaa264736f6c63430008000033",
  "devdoc": {
    "kind": "dev",
    "methods": {},
    "version": 1
  },
  "userdoc": {
    "kind": "user",
    "methods": {},
    "version": 1
  },
  "storageLayout": {
    "storage": [
      {
        "astId": 3,
        "contract": "contracts/ServiceContract.sol:ServiceContract",
        "label": "owner",
        "offset": 0,
        "slot": "0",
        "type": "t_address"
      },
      {
        "astId": 5,
        "contract": "contracts/ServiceContract.sol:ServiceContract",
        "label": "deployer",
        "offset": 0,
        "slot": "1",
        "type": "t_address"
      },
      {
        "astId": 8,
        "contract": "contracts/ServiceContract.sol:ServiceContract",
        "label": "listingsArray",
        "offset": 0,
        "slot": "2",
        "type": "t_array(t_string_storage)dyn_storage"
      },
      {
        "astId": 13,
        "contract": "contracts/ServiceContract.sol:ServiceContract",
        "label": "services",
        "offset": 0,
        "slot": "3",
        "type": "t_mapping(t_string_memory_ptr,t_struct(ServiceData)91_storage)"
      },
      {
        "astId": 17,
        "contract": "contracts/ServiceContract.sol:ServiceContract",
        "label": "serviceBuyers",
        "offset": 0,
        "slot": "4",
        "type": "t_mapping(t_string_memory_ptr,t_address)"
      },
      {
        "astId": 21,
        "contract": "contracts/ServiceContract.sol:ServiceContract",
        "label": "serviceLocations",
        "offset": 0,
        "slot": "5",
        "type": "t_mapping(t_address,t_string_storage)"
      },
      {
        "astId": 25,
        "contract": "contracts/ServiceContract.sol:ServiceContract",
        "label": "customRequirements",
        "offset": 0,
        "slot": "6",
        "type": "t_mapping(t_address,t_string_storage)"
      }
    ],
    "types": {
      "t_address": {
        "encoding": "inplace",
        "label": "address",
        "numberOfBytes": "20"
      },
      "t_address_payable": {
        "encoding": "inplace",
        "label": "address payable",
        "numberOfBytes": "20"
      },
      "t_array(t_string_storage)dyn_storage": {
        "base": "t_string_storage",
        "encoding": "dynamic_array",
        "label": "string[]",
        "numberOfBytes": "32"
      },
      "t_bool": {
        "encoding": "inplace",
        "label": "bool",
        "numberOfBytes": "1"
      },
      "t_mapping(t_address,t_string_storage)": {
        "encoding": "mapping",
        "key": "t_address",
        "label": "mapping(address => string)",
        "numberOfBytes": "32",
        "value": "t_string_storage"
      },
      "t_mapping(t_string_memory_ptr,t_address)": {
        "encoding": "mapping",
        "key": "t_string_memory_ptr",
        "label": "mapping(string => address)",
        "numberOfBytes": "32",
        "value": "t_address"
      },
      "t_mapping(t_string_memory_ptr,t_struct(ServiceData)91_storage)": {
        "encoding": "mapping",
        "key": "t_string_memory_ptr",
        "label": "mapping(string => struct ServiceContract.ServiceData)",
        "numberOfBytes": "32",
        "value": "t_struct(ServiceData)91_storage"
      },
      "t_string_memory_ptr": {
        "encoding": "bytes",
        "label": "string",
        "numberOfBytes": "32"
      },
      "t_string_storage": {
        "encoding": "bytes",
        "label": "string",
        "numberOfBytes": "32"
      },
      "t_struct(ServiceData)91_storage": {
        "encoding": "inplace",
        "label": "struct ServiceContract.ServiceData",
        "members": [
          {
            "astId": 70,
            "contract": "contracts/ServiceContract.sol:ServiceContract",
            "label": "title",
            "offset": 0,
            "slot": "0",
            "type": "t_string_storage"
          },
          {
            "astId": 72,
            "contract": "contracts/ServiceContract.sol:ServiceContract",
            "label": "description",
            "offset": 0,
            "slot": "1",
            "type": "t_string_storage"
          },
          {
            "astId": 74,
            "contract": "contracts/ServiceContract.sol:ServiceContract",
            "label": "location",
            "offset": 0,
            "slot": "2",
            "type": "t_string_storage"
          },
          {
            "astId": 76,
            "contract": "contracts/ServiceContract.sol:ServiceContract",
            "label": "completionRequirements",
            "offset": 0,
            "slot": "3",
            "type": "t_string_storage"
          },
          {
            "astId": 78,
            "contract": "contracts/ServiceContract.sol:ServiceContract",
            "label": "termsOfService",
            "offset": 0,
            "slot": "4",
            "type": "t_string_storage"
          },
          {
            "astId": 80,
            "contract": "contracts/ServiceContract.sol:ServiceContract",
            "label": "image",
            "offset": 0,
            "slot": "5",
            "type": "t_string_storage"
          },
          {
            "astId": 82,
            "contract": "contracts/ServiceContract.sol:ServiceContract",
            "label": "price",
            "offset": 0,
            "slot": "6",
            "type": "t_uint256"
          },
          {
            "astId": 84,
            "contract": "contracts/ServiceContract.sol:ServiceContract",
            "label": "timeValidity",
            "offset": 0,
            "slot": "7",
            "type": "t_uint32"
          },
          {
            "astId": 86,
            "contract": "contracts/ServiceContract.sol:ServiceContract",
            "label": "quantity",
            "offset": 4,
            "slot": "7",
            "type": "t_uint32"
          },
          {
            "astId": 88,
            "contract": "contracts/ServiceContract.sol:ServiceContract",
            "label": "creatorWallet",
            "offset": 8,
            "slot": "7",
            "type": "t_address_payable"
          },
          {
            "astId": 90,
            "contract": "contracts/ServiceContract.sol:ServiceContract",
            "label": "isCompleted",
            "offset": 28,
            "slot": "7",
            "type": "t_bool"
          }
        ],
        "numberOfBytes": "256"
      },
      "t_uint256": {
        "encoding": "inplace",
        "label": "uint256",
        "numberOfBytes": "32"
      },
      "t_uint32": {
        "encoding": "inplace",
        "label": "uint32",
        "numberOfBytes": "4"
      }
    }
  }
}