{
  "address": "0xb7C37fa046F290B9b191F38d0FE4BF25E23f109d",
  "abi": [
    {
      "inputs": [],
      "stateMutability": "nonpayable",
      "type": "constructor"
    },
    {
      "anonymous": false,
      "inputs": [
        {
          "indexed": false,
          "internalType": "address",
          "name": "user",
          "type": "address"
        },
        {
          "indexed": false,
          "internalType": "string",
          "name": "requirements",
          "type": "string"
        }
      ],
      "name": "CustomRequirementsUpdated",
      "type": "event"
    },
    {
      "anonymous": false,
      "inputs": [
        {
          "indexed": false,
          "internalType": "string",
          "name": "listingID",
          "type": "string"
        },
        {
          "indexed": false,
          "internalType": "address",
          "name": "owner",
          "type": "address"
        }
      ],
      "name": "ServiceCompleted",
      "type": "event"
    },
    {
      "anonymous": false,
      "inputs": [
        {
          "indexed": false,
          "internalType": "string",
          "name": "listingID",
          "type": "string"
        },
        {
          "components": [
            {
              "internalType": "string",
              "name": "title",
              "type": "string"
            },
            {
              "internalType": "string",
              "name": "description",
              "type": "string"
            },
            {
              "internalType": "string",
              "name": "location",
              "type": "string"
            },
            {
              "internalType": "string",
              "name": "completionRequirements",
              "type": "string"
            },
            {
              "internalType": "string",
              "name": "termsOfService",
              "type": "string"
            },
            {
              "internalType": "string",
              "name": "image",
              "type": "string"
            },
            {
              "internalType": "uint256",
              "name": "price",
              "type": "uint256"
            },
            {
              "internalType": "uint32",
              "name": "timeValidity",
              "type": "uint32"
            },
            {
              "internalType": "uint32",
              "name": "quantity",
              "type": "uint32"
            },
            {
              "internalType": "address payable",
              "name": "creatorWallet",
              "type": "address"
            },
            {
              "internalType": "bool",
              "name": "isCompleted",
              "type": "bool"
            },
            {
              "internalType": "string",
              "name": "listingID",
              "type": "string"
            }
          ],
          "indexed": false,
          "internalType": "struct ServiceContract.ServiceData",
          "name": "service",
          "type": "tuple"
        }
      ],
      "name": "ServiceDataFetched",
      "type": "event"
    },
    {
      "anonymous": false,
      "inputs": [
        {
          "indexed": false,
          "internalType": "string",
          "name": "listingID",
          "type": "string"
        },
        {
          "indexed": false,
          "internalType": "address",
          "name": "owner",
          "type": "address"
        },
        {
          "indexed": false,
          "internalType": "uint256",
          "name": "price",
          "type": "uint256"
        },
        {
          "indexed": false,
          "internalType": "uint32",
          "name": "quantity",
          "type": "uint32"
        }
      ],
      "name": "ServiceListed",
      "type": "event"
    },
    {
      "anonymous": false,
      "inputs": [
        {
          "indexed": false,
          "internalType": "address",
          "name": "user",
          "type": "address"
        },
        {
          "indexed": false,
          "internalType": "string",
          "name": "serviceLocation",
          "type": "string"
        }
      ],
      "name": "ServiceLocationUpdated",
      "type": "event"
    },
    {
      "anonymous": false,
      "inputs": [
        {
          "indexed": false,
          "internalType": "string",
          "name": "listingID",
          "type": "string"
        },
        {
          "indexed": false,
          "internalType": "address",
          "name": "buyer",
          "type": "address"
        },
        {
          "indexed": false,
          "internalType": "uint32",
          "name": "quantity",
          "type": "uint32"
        }
      ],
      "name": "ServicePurchased",
      "type": "event"
    },
    {
      "inputs": [
        {
          "internalType": "string",
          "name": "_listingID",
          "type": "string"
        },
        {
          "internalType": "address",
          "name": "clientWallet",
          "type": "address"
        }
      ],
      "name": "confirmCompletion",
      "outputs": [],
      "stateMutability": "nonpayable",
      "type": "function"
    },
    {
      "inputs": [
        {
          "internalType": "string",
          "name": "_title",
          "type": "string"
        },
        {
          "internalType": "string",
          "name": "_description",
          "type": "string"
        },
        {
          "internalType": "string",
          "name": "_location",
          "type": "string"
        },
        {
          "internalType": "string",
          "name": "_completionRequirements",
          "type": "string"
        },
        {
          "internalType": "string",
          "name": "_termsOfService",
          "type": "string"
        },
        {
          "internalType": "string",
          "name": "_image",
          "type": "string"
        },
        {
          "internalType": "uint256",
          "name": "_price",
          "type": "uint256"
        },
        {
          "internalType": "uint32",
          "name": "_timeValidity",
          "type": "uint32"
        },
        {
          "internalType": "uint32",
          "name": "_quantity",
          "type": "uint32"
        },
        {
          "internalType": "string",
          "name": "_listingID",
          "type": "string"
        }
      ],
      "name": "createService",
      "outputs": [],
      "stateMutability": "nonpayable",
      "type": "function"
    },
    {
      "inputs": [],
      "name": "getAllListings",
      "outputs": [
        {
          "internalType": "string[]",
          "name": "",
          "type": "string[]"
        }
      ],
      "stateMutability": "view",
      "type": "function"
    },
    {
      "inputs": [],
      "name": "getAllServiceData",
      "outputs": [
        {
          "internalType": "string[]",
          "name": "",
          "type": "string[]"
        },
        {
          "components": [
            {
              "internalType": "string",
              "name": "title",
              "type": "string"
            },
            {
              "internalType": "string",
              "name": "description",
              "type": "string"
            },
            {
              "internalType": "string",
              "name": "location",
              "type": "string"
            },
            {
              "internalType": "string",
              "name": "completionRequirements",
              "type": "string"
            },
            {
              "internalType": "string",
              "name": "termsOfService",
              "type": "string"
            },
            {
              "internalType": "string",
              "name": "image",
              "type": "string"
            },
            {
              "internalType": "uint256",
              "name": "price",
              "type": "uint256"
            },
            {
              "internalType": "uint32",
              "name": "timeValidity",
              "type": "uint32"
            },
            {
              "internalType": "uint32",
              "name": "quantity",
              "type": "uint32"
            },
            {
              "internalType": "address payable",
              "name": "creatorWallet",
              "type": "address"
            },
            {
              "internalType": "bool",
              "name": "isCompleted",
              "type": "bool"
            },
            {
              "internalType": "string",
              "name": "listingID",
              "type": "string"
            }
          ],
          "internalType": "struct ServiceContract.ServiceData[]",
          "name": "",
          "type": "tuple[]"
        }
      ],
      "stateMutability": "view",
      "type": "function"
    },
    {
      "inputs": [
        {
          "internalType": "address",
          "name": "user",
          "type": "address"
        }
      ],
      "name": "getCustomRequirements",
      "outputs": [
        {
          "internalType": "string",
          "name": "",
          "type": "string"
        }
      ],
      "stateMutability": "view",
      "type": "function"
    },
    {
      "inputs": [
        {
          "internalType": "string",
          "name": "listingID",
          "type": "string"
        }
      ],
      "name": "getServiceData",
      "outputs": [
        {
          "components": [
            {
              "internalType": "string",
              "name": "title",
              "type": "string"
            },
            {
              "internalType": "string",
              "name": "description",
              "type": "string"
            },
            {
              "internalType": "string",
              "name": "location",
              "type": "string"
            },
            {
              "internalType": "string",
              "name": "completionRequirements",
              "type": "string"
            },
            {
              "internalType": "string",
              "name": "termsOfService",
              "type": "string"
            },
            {
              "internalType": "string",
              "name": "image",
              "type": "string"
            },
            {
              "internalType": "uint256",
              "name": "price",
              "type": "uint256"
            },
            {
              "internalType": "uint32",
              "name": "timeValidity",
              "type": "uint32"
            },
            {
              "internalType": "uint32",
              "name": "quantity",
              "type": "uint32"
            },
            {
              "internalType": "address payable",
              "name": "creatorWallet",
              "type": "address"
            },
            {
              "internalType": "bool",
              "name": "isCompleted",
              "type": "bool"
            },
            {
              "internalType": "string",
              "name": "listingID",
              "type": "string"
            }
          ],
          "internalType": "struct ServiceContract.ServiceData",
          "name": "",
          "type": "tuple"
        }
      ],
      "stateMutability": "view",
      "type": "function"
    },
    {
      "inputs": [
        {
          "internalType": "address",
          "name": "user",
          "type": "address"
        }
      ],
      "name": "getServiceLocation",
      "outputs": [
        {
          "internalType": "string",
          "name": "",
          "type": "string"
        }
      ],
      "stateMutability": "view",
      "type": "function"
    },
    {
      "inputs": [
        {
          "internalType": "uint256",
          "name": "",
          "type": "uint256"
        }
      ],
      "name": "listingsArray",
      "outputs": [
        {
          "internalType": "string",
          "name": "",
          "type": "string"
        }
      ],
      "stateMutability": "view",
      "type": "function"
    },
    {
      "inputs": [
        {
          "internalType": "string",
          "name": "_listingID",
          "type": "string"
        },
        {
          "internalType": "uint32",
          "name": "_quantity",
          "type": "uint32"
        }
      ],
      "name": "purchaseService",
      "outputs": [],
      "stateMutability": "payable",
      "type": "function"
    },
    {
      "inputs": [
        {
          "internalType": "string",
          "name": "",
          "type": "string"
        }
      ],
      "name": "services",
      "outputs": [
        {
          "internalType": "string",
          "name": "title",
          "type": "string"
        },
        {
          "internalType": "string",
          "name": "description",
          "type": "string"
        },
        {
          "internalType": "string",
          "name": "location",
          "type": "string"
        },
        {
          "internalType": "string",
          "name": "completionRequirements",
          "type": "string"
        },
        {
          "internalType": "string",
          "name": "termsOfService",
          "type": "string"
        },
        {
          "internalType": "string",
          "name": "image",
          "type": "string"
        },
        {
          "internalType": "uint256",
          "name": "price",
          "type": "uint256"
        },
        {
          "internalType": "uint32",
          "name": "timeValidity",
          "type": "uint32"
        },
        {
          "internalType": "uint32",
          "name": "quantity",
          "type": "uint32"
        },
        {
          "internalType": "address payable",
          "name": "creatorWallet",
          "type": "address"
        },
        {
          "internalType": "bool",
          "name": "isCompleted",
          "type": "bool"
        },
        {
          "internalType": "string",
          "name": "listingID",
          "type": "string"
        }
      ],
      "stateMutability": "view",
      "type": "function"
    },
    {
      "inputs": [
        {
          "internalType": "string",
          "name": "_requirements",
          "type": "string"
        }
      ],
      "name": "setCustomRequirements",
      "outputs": [],
      "stateMutability": "nonpayable",
      "type": "function"
    },
    {
      "inputs": [
        {
          "internalType": "string",
          "name": "_serviceLocation",
          "type": "string"
        }
      ],
      "name": "setServiceLocation",
      "outputs": [],
      "stateMutability": "nonpayable",
      "type": "function"
    }
  ],
  "transactionHash": "0x291dd972385dabd12480dfe10517646ba3742dd9fc14186ba4e61abcca59e636",
  "args": [],
  "numDeployments": 2,
  "solcInputHash": "3b526aac1b8901a99a95c802863ea0ba",
  "bytecode": "0x608060405234801561001057600080fd5b5060008054336001600160a01b03199182168117835560018054909216179055612aca90819061004090396000f3fe6080604052600436106100a75760003560e01c806393f25d1e1161006457806393f25d1e1461019c5780639af1a80d146101bc578063ae73ccec146101df578063cdf0ed1314610201578063d4b07fbd14610221578063e0e4e05214610241576100a7565b8063249076f7146100ac5780633017ba09146100e257806336e9a6241461011a57806348fb8c221461013c5780636e19a94f1461016957806385440d1c14610189575b600080fd5b3480156100b857600080fd5b506100cc6100c7366004611e55565b610261565b6040516100d9919061298b565b60405180910390f35b3480156100ee57600080fd5b506101026100fd366004611e55565b610753565b6040516100d99c9b9a9998979695949392919061248c565b34801561012657600080fd5b5061013a610135366004611e55565b610b8e565b005b34801561014857600080fd5b5061015c61015736600461205f565b610beb565b6040516100d991906123d8565b34801561017557600080fd5b5061015c610184366004611e34565b610c97565b61013a61019736600461201c565b610d86565b3480156101a857600080fd5b5061013a6101b7366004611edc565b610ed4565b3480156101c857600080fd5b506101d16111f4565b6040516100d9929190612368565b3480156101eb57600080fd5b506101f4611831565b6040516100d99190612355565b34801561020d57600080fd5b5061015c61021c366004611e34565b61190a565b34801561022d57600080fd5b5061013a61023c366004611e55565b611974565b34801561024d57600080fd5b5061013a61025c366004611e90565b6119c6565b610269611c77565b60006001600160a01b031660038360405161028491906122a6565b908152604051908190036020019020600701546001600160a01b03600160401b9091041614156102cf5760405162461bcd60e51b81526004016102c690612687565b60405180910390fd5b6003826040516102df91906122a6565b90815260200160405180910390206040518061018001604052908160008201805461030990612a12565b80601f016020809104026020016040519081016040528092919081815260200182805461033590612a12565b80156103825780601f1061035757610100808354040283529160200191610382565b820191906000526020600020905b81548152906001019060200180831161036557829003601f168201915b5050505050815260200160018201805461039b90612a12565b80601f01602080910402602001604051908101604052809291908181526020018280546103c790612a12565b80156104145780601f106103e957610100808354040283529160200191610414565b820191906000526020600020905b8154815290600101906020018083116103f757829003601f168201915b5050505050815260200160028201805461042d90612a12565b80601f016020809104026020016040519081016040528092919081815260200182805461045990612a12565b80156104a65780601f1061047b576101008083540402835291602001916104a6565b820191906000526020600020905b81548152906001019060200180831161048957829003601f168201915b505050505081526020016003820180546104bf90612a12565b80601f01602080910402602001604051908101604052809291908181526020018280546104eb90612a12565b80156105385780601f1061050d57610100808354040283529160200191610538565b820191906000526020600020905b81548152906001019060200180831161051b57829003601f168201915b5050505050815260200160048201805461055190612a12565b80601f016020809104026020016040519081016040528092919081815260200182805461057d90612a12565b80156105ca5780601f1061059f576101008083540402835291602001916105ca565b820191906000526020600020905b8154815290600101906020018083116105ad57829003601f168201915b505050505081526020016005820180546105e390612a12565b80601f016020809104026020016040519081016040528092919081815260200182805461060f90612a12565b801561065c5780601f106106315761010080835404028352916020019161065c565b820191906000526020600020905b81548152906001019060200180831161063f57829003601f168201915b505050918352505060068201546020820152600782015463ffffffff80821660408401526401000000008204166060830152600160401b81046001600160a01b03166080830152600160e01b900460ff16151560a082015260088201805460c0909201916106c990612a12565b80601f01602080910402602001604051908101604052809291908181526020018280546106f590612a12565b80156107425780601f1061071757610100808354040283529160200191610742565b820191906000526020600020905b81548152906001019060200180831161072557829003601f168201915b50505050508152505090505b919050565b805160208183018101805160038252928201919093012091528054819061077990612a12565b80601f01602080910402602001604051908101604052809291908181526020018280546107a590612a12565b80156107f25780601f106107c7576101008083540402835291602001916107f2565b820191906000526020600020905b8154815290600101906020018083116107d557829003601f168201915b50505050509080600101805461080790612a12565b80601f016020809104026020016040519081016040528092919081815260200182805461083390612a12565b80156108805780601f1061085557610100808354040283529160200191610880565b820191906000526020600020905b81548152906001019060200180831161086357829003601f168201915b50505050509080600201805461089590612a12565b80601f01602080910402602001604051908101604052809291908181526020018280546108c190612a12565b801561090e5780601f106108e35761010080835404028352916020019161090e565b820191906000526020600020905b8154815290600101906020018083116108f157829003601f168201915b50505050509080600301805461092390612a12565b80601f016020809104026020016040519081016040528092919081815260200182805461094f90612a12565b801561099c5780601f106109715761010080835404028352916020019161099c565b820191906000526020600020905b81548152906001019060200180831161097f57829003601f168201915b5050505050908060040180546109b190612a12565b80601f01602080910402602001604051908101604052809291908181526020018280546109dd90612a12565b8015610a2a5780601f106109ff57610100808354040283529160200191610a2a565b820191906000526020600020905b815481529060010190602001808311610a0d57829003601f168201915b505050505090806005018054610a3f90612a12565b80601f0160208091040260200160405190810160405280929190818152602001828054610a6b90612a12565b8015610ab85780601f10610a8d57610100808354040283529160200191610ab8565b820191906000526020600020905b815481529060010190602001808311610a9b57829003601f168201915b50505050600683015460078401546008850180549495929463ffffffff808416955064010000000084041693600160401b84046001600160a01b031693600160e01b900460ff16929091610b0b90612a12565b80601f0160208091040260200160405190810160405280929190818152602001828054610b3790612a12565b8015610b845780601f10610b5957610100808354040283529160200191610b84565b820191906000526020600020905b815481529060010190602001808311610b6757829003601f168201915b505050505090508c565b3360009081526005602090815260409091208251610bae92840190611cef565b507fba2118a50cbbf36400f4f413b1f7c6c01bae885b520bccb5d9b04870967de33c3382604051610be0929190612331565b60405180910390a150565b60028181548110610bfb57600080fd5b906000526020600020016000915090508054610c1690612a12565b80601f0160208091040260200160405190810160405280929190818152602001828054610c4290612a12565b8015610c8f5780601f10610c6457610100808354040283529160200191610c8f565b820191906000526020600020905b815481529060010190602001808311610c7257829003601f168201915b505050505081565b6001600160a01b038116600090815260066020526040812080546060929190610cbf90612a12565b905011610cde5760405162461bcd60e51b81526004016102c6906127e0565b6001600160a01b03821660009081526006602052604090208054610d0190612a12565b80601f0160208091040260200160405190810160405280929190818152602001828054610d2d90612a12565b8015610d7a5780601f10610d4f57610100808354040283529160200191610d7a565b820191906000526020600020905b815481529060010190602001808311610d5d57829003601f168201915b50505050509050919050565b6000600383604051610d9891906122a6565b908152604051908190036020019020600781015490915063ffffffff64010000000090910481169083161115610de05760405162461bcd60e51b81526004016102c690612904565b8163ffffffff168160060154610df6919061299e565b3414610e145760405162461bcd60e51b81526004016102c6906126b7565b818160070160048282829054906101000a900463ffffffff16610e3791906129bd565b92506101000a81548163ffffffff021916908363ffffffff16021790555033600484604051610e6691906122a6565b90815260405190819003602001812080546001600160a01b03939093166001600160a01b0319909316929092179091557f72315a13232dfaf416749785faf573a7247431c6384d243d27594c1059a5b92e90610ec790859033908690612453565b60405180910390a1505050565b60006001600160a01b0316600382604051610eef91906122a6565b908152604051908190036020019020600701546001600160a01b03600160401b9091041614610f305760405162461bcd60e51b81526004016102c690612896565b6040518061018001604052808b81526020018a81526020018981526020018881526020018781526020018681526020018581526020018463ffffffff1681526020018363ffffffff168152602001336001600160a01b0316815260200160001515815260200182815250600382604051610faa91906122a6565b90815260200160405180910390206000820151816000019080519060200190610fd4929190611cef565b506020828101518051610fed9260018501920190611cef565b5060408201518051611009916002840191602090910190611cef565b5060608201518051611025916003840191602090910190611cef565b5060808201518051611041916004840191602090910190611cef565b5060a0820151805161105d916005840191602090910190611cef565b5060c0820151600682015560e08201516007820180546101008501516101208601516101408701511515600160e01b0260ff60e01b196001600160a01b03909216600160401b0268010000000000000000600160e01b031963ffffffff9485166401000000000267ffffffff00000000199590981663ffffffff19909616959095179390931695909517929092161716919091179055610160820151805161110f916008840191602090910190611cef565b505060028054600181018255600091909152825161115792507f405787fa12a823e0f2b7631cc41b3ba8828b3321ca811111fa75cd3aa3bb5ace909101906020840190611cef565b507f416821e2db0d41ddfde7a3f0572ce5e3554d57aa7a38b1fffd8b50367b5e6b1c8133868560405161118d9493929190612415565b60405180910390a17fe7baf1ae4e4ad01e660c0fbe40f101e9e7614d338c27bc72b0a7dc31ff699ebd816003836040516111c791906122a6565b9081526040519081900360200181206111e09291612568565b60405180910390a150505050505050505050565b600254606090819060008167ffffffffffffffff81111561122557634e487b7160e01b600052604160045260246000fd5b60405190808252806020026020018201604052801561125e57816020015b61124b611c77565b8152602001906001900390816112435790505b50905060005b828110156117505760036002828154811061128f57634e487b7160e01b600052603260045260246000fd5b906000526020600020016040516112a691906122c2565b9081526020016040518091039020604051806101800160405290816000820180546112d090612a12565b80601f01602080910402602001604051908101604052809291908181526020018280546112fc90612a12565b80156113495780601f1061131e57610100808354040283529160200191611349565b820191906000526020600020905b81548152906001019060200180831161132c57829003601f168201915b5050505050815260200160018201805461136290612a12565b80601f016020809104026020016040519081016040528092919081815260200182805461138e90612a12565b80156113db5780601f106113b0576101008083540402835291602001916113db565b820191906000526020600020905b8154815290600101906020018083116113be57829003601f168201915b505050505081526020016002820180546113f490612a12565b80601f016020809104026020016040519081016040528092919081815260200182805461142090612a12565b801561146d5780601f106114425761010080835404028352916020019161146d565b820191906000526020600020905b81548152906001019060200180831161145057829003601f168201915b5050505050815260200160038201805461148690612a12565b80601f01602080910402602001604051908101604052809291908181526020018280546114b290612a12565b80156114ff5780601f106114d4576101008083540402835291602001916114ff565b820191906000526020600020905b8154815290600101906020018083116114e257829003601f168201915b5050505050815260200160048201805461151890612a12565b80601f016020809104026020016040519081016040528092919081815260200182805461154490612a12565b80156115915780601f1061156657610100808354040283529160200191611591565b820191906000526020600020905b81548152906001019060200180831161157457829003601f168201915b505050505081526020016005820180546115aa90612a12565b80601f01602080910402602001604051908101604052809291908181526020018280546115d690612a12565b80156116235780601f106115f857610100808354040283529160200191611623565b820191906000526020600020905b81548152906001019060200180831161160657829003601f168201915b505050918352505060068201546020820152600782015463ffffffff80821660408401526401000000008204166060830152600160401b81046001600160a01b03166080830152600160e01b900460ff16151560a082015260088201805460c09092019161169090612a12565b80601f01602080910402602001604051908101604052809291908181526020018280546116bc90612a12565b80156117095780601f106116de57610100808354040283529160200191611709565b820191906000526020600020905b8154815290600101906020018083116116ec57829003601f168201915b50505050508152505082828151811061173257634e487b7160e01b600052603260045260246000fd5b6020026020010181905250808061174890612a4d565b915050611264565b5060028181805480602002602001604051908101604052809291908181526020016000905b8282101561182157838290600052602060002001805461179490612a12565b80601f01602080910402602001604051908101604052809291908181526020018280546117c090612a12565b801561180d5780601f106117e25761010080835404028352916020019161180d565b820191906000526020600020905b8154815290600101906020018083116117f057829003601f168201915b505050505081526020019060010190611775565b5050505091509350935050509091565b60606002805480602002602001604051908101604052809291908181526020016000905b8282101561190157838290600052602060002001805461187490612a12565b80601f01602080910402602001604051908101604052809291908181526020018280546118a090612a12565b80156118ed5780601f106118c2576101008083540402835291602001916118ed565b820191906000526020600020905b8154815290600101906020018083116118d057829003601f168201915b505050505081526020019060010190611855565b50505050905090565b6001600160a01b03811660009081526005602052604081208054606092919061193290612a12565b9050116119515760405162461bcd60e51b81526004016102c690612773565b6001600160a01b03821660009081526005602052604090208054610d0190612a12565b336000908152600660209081526040909120825161199492840190611cef565b507fb764913240e989050dc5d09fd70c3e9d7f8fbbce9f08a4222d238432bbc5ffbb3382604051610be0929190612331565b6003826040516119d691906122a6565b90815260405160209181900391909101902060070154600160401b90046001600160a01b03163314611a1a5760405162461bcd60e51b81526004016102c69061293b565b600382604051611a2a91906122a6565b9081526040519081900360200190206007015460ff600160e01b9091041615611a655760405162461bcd60e51b81526004016102c6906126ee565b6000600483604051611a7791906122a6565b908152604051908190036020019020546001600160a01b03908116915082168114611ab45760405162461bcd60e51b81526004016102c690612725565b6001600160a01b038116611ada5760405162461bcd60e51b81526004016102c6906128cd565b6001600160a01b03811660009081526005602052604081208054611afd90612a12565b80601f0160208091040260200160405190810160405280929190818152602001828054611b2990612a12565b8015611b765780601f10611b4b57610100808354040283529160200191611b76565b820191906000526020600020905b815481529060010190602001808311611b5957829003601f168201915b505050505090506000815111611b9e5760405162461bcd60e51b81526004016102c690612851565b6001600385604051611bb091906122a6565b9081526040519081900360200181206007018054921515600160e01b0260ff60e01b1990931692909217909155600390611beb9086906122a6565b908152604051908190036020018120600701546001600160a01b03600160401b90910416904780156108fc02916000818181858888f19350505050158015611c37573d6000803e3d6000fd5b507fdcde1585e07c17affe7826d5641edcbcf609c0fcd6c088d3596f0a53c890775d8433604051611c699291906123eb565b60405180910390a150505050565b60405180610180016040528060608152602001606081526020016060815260200160608152602001606081526020016060815260200160008152602001600063ffffffff168152602001600063ffffffff16815260200160006001600160a01b03168152602001600015158152602001606081525090565b828054611cfb90612a12565b90600052602060002090601f016020900481019282611d1d5760008555611d63565b82601f10611d3657805160ff1916838001178555611d63565b82800160010185558215611d63579182015b82811115611d63578251825591602001919060010190611d48565b50611d6f929150611d73565b5090565b5b80821115611d6f5760008155600101611d74565b80356001600160a01b038116811461074e57600080fd5b600082601f830112611daf578081fd5b813567ffffffffffffffff80821115611dca57611dca612a7e565b604051601f8301601f191681016020018281118282101715611dee57611dee612a7e565b604052828152848301602001861015611e05578384fd5b82602086016020830137918201602001929092529392505050565b803563ffffffff8116811461074e57600080fd5b600060208284031215611e45578081fd5b611e4e82611d88565b9392505050565b600060208284031215611e66578081fd5b813567ffffffffffffffff811115611e7c578182fd5b611e8884828501611d9f565b949350505050565b60008060408385031215611ea2578081fd5b823567ffffffffffffffff811115611eb8578182fd5b611ec485828601611d9f565b925050611ed360208401611d88565b90509250929050565b6000806000806000806000806000806101408b8d031215611efb578586fd5b8a3567ffffffffffffffff80821115611f12578788fd5b611f1e8e838f01611d9f565b9b5060208d0135915080821115611f33578788fd5b611f3f8e838f01611d9f565b9a5060408d0135915080821115611f54578788fd5b611f608e838f01611d9f565b995060608d0135915080821115611f75578788fd5b611f818e838f01611d9f565b985060808d0135915080821115611f96578788fd5b611fa28e838f01611d9f565b975060a08d0135915080821115611fb7578687fd5b611fc38e838f01611d9f565b965060c08d01359550611fd860e08e01611e20565b9450611fe76101008e01611e20565b93506101208d0135915080821115611ffd578283fd5b5061200a8d828e01611d9f565b9150509295989b9194979a5092959850565b6000806040838503121561202e578182fd5b823567ffffffffffffffff811115612044578283fd5b61205085828601611d9f565b925050611ed360208401611e20565b600060208284031215612070578081fd5b5035919050565b6001600160a01b03169052565b60008282518085526020808601955080818302840101818601855b848110156120cd57601f198684030189526120bb8383516120e0565b9884019892509083019060010161209f565b5090979650505050505050565b15159052565b600081518084526120f88160208601602086016129e2565b601f01601f19169290920160200192915050565b6000815461211981612a12565b808552602060018381168015612136576001811461214a57612178565b60ff19851688840152604088019550612178565b866000528260002060005b858110156121705781548a8201860152908301908401612155565b890184019650505b505050505092915050565b60006101808251818552612199828601826120e0565b915050602083015184820360208601526121b382826120e0565b915050604083015184820360408601526121cd82826120e0565b915050606083015184820360608601526121e782826120e0565b9150506080830151848203608086015261220182826120e0565b91505060a083015184820360a086015261221b82826120e0565b91505060c083015160c085015260e083015161223a60e086018261229c565b506101008084015161224e8287018261229c565b50506101208084015161226382870182612077565b505061014080840151612278828701826120da565b5050610160808401518583038287015261229283826120e0565b9695505050505050565b63ffffffff169052565b600082516122b88184602087016129e2565b9190910192915050565b60008083546122d081612a12565b600182811680156122e857600181146122f957612325565b60ff19841687528287019450612325565b8786526020808720875b8581101561231c5781548a820152908401908201612303565b50505082870194505b50929695505050505050565b6001600160a01b0383168152604060208201819052600090611e88908301846120e0565b600060208252611e4e6020830184612084565b60006040825261237b6040830185612084565b602083820381850152818551808452828401915082838202850101838801865b838110156123c957601f198784030185526123b7838351612183565b9486019492509085019060010161239b565b50909998505050505050505050565b600060208252611e4e60208301846120e0565b6000604082526123fe60408301856120e0565b905060018060a01b03831660208301529392505050565b60006080825261242860808301876120e0565b6001600160a01b0395909516602083015250604081019290925263ffffffff16606090910152919050565b60006060825261246660608301866120e0565b6001600160a01b039490941660208301525063ffffffff91909116604090910152919050565b600061018082526124a161018083018f6120e0565b82810360208401526124b3818f6120e0565b905082810360408401526124c7818e6120e0565b905082810360608401526124db818d6120e0565b905082810360808401526124ef818c6120e0565b905082810360a0840152612503818b6120e0565b90508860c084015261251860e084018961229c565b61252661010084018861229c565b612534610120840187612077565b6125426101408401866120da565b82810361016084015261255581856120e0565b9f9e505050505050505050505050505050565b60006040825261257b60408301856120e0565b82810360208401526101808082526125958183018661210c565b905081810360208301526125ac816001870161210c565b905081810360408301526125c3816002870161210c565b905081810360608301526125da816003870161210c565b905081810360808301526125f1816004870161210c565b905081810360a0830152612608816005870161210c565b9050600685015460c0830152600785015463ffffffff61262d60e0850182841661229c565b6126406101008501828460201c1661229c565b5061265c6101208401604083901c6001600160a01b0316612077565b612670610140840160ff8360e01c166120da565b50818103610160830152612292816008870161210c565b60208082526016908201527514d95c9d9a58d948191bd95cc81b9bdd08195e1a5cdd60521b604082015260600190565b6020808252601e908201527f496e636f727265637420616d6f756e74206f662045746865722073656e740000604082015260600190565b60208082526019908201527f5365727669636520616c726561647920636f6d706c6574656400000000000000604082015260600190565b6020808252602e908201527f436c69656e742077616c6c6574206164647265737320646f6573206e6f74206d60408201526d30ba31b4103a343290313abcb2b960911b606082015260800190565b60208082526047908201527f4e6f2073657276696365206c6f636174696f6e2073657420627920746869732060408201527f757365722e2041726520796f75207375726520746865792068617665207075726060820152666368617365643f60c81b608082015260a00190565b6020808252604b908201527f4e6f20637573746f6d20726571756972656d656e74732073657420666f72207460408201527f68697320757365722e2041726520796f7520737572652074686579206861766560608201526a207075726368617365643f60a81b608082015260a00190565b60208082526025908201527f436c69656e7420686173206e6f742073657420612073657276696365206c6f6360408201526430ba34b7b760d91b606082015260800190565b60208082526019908201527f4c697374696e6720494420616c72656164792065786973747300000000000000604082015260600190565b6020808252601f908201527f4e6f20627579657220666f756e6420666f722074686973206c697374696e6700604082015260600190565b6020808252601d908201527f4e6f7420656e6f75676820736572766963657320617661696c61626c65000000604082015260600190565b60208082526030908201527f4f6e6c792074686520736572766963652070726f76696465722063616e20636f60408201526f373334b9369031b7b6b83632ba34b7b760811b606082015260800190565b600060208252611e4e6020830184612183565b60008160001904831182151516156129b8576129b8612a68565b500290565b600063ffffffff838116908316818110156129da576129da612a68565b039392505050565b60005b838110156129fd5781810151838201526020016129e5565b83811115612a0c576000848401525b50505050565b600281046001821680612a2657607f821691505b60208210811415612a4757634e487b7160e01b600052602260045260246000fd5b50919050565b6000600019821415612a6157612a61612a68565b5060010190565b634e487b7160e01b600052601160045260246000fd5b634e487b7160e01b600052604160045260246000fdfea2646970667358221220830cd6b114ad0768ed294e5a131e10b604570865e6cbf54042d98228200e5bc364736f6c63430008000033",
  "devdoc": {
    "kind": "dev",
    "methods": {},
    "version": 1
  },
  "userdoc": {
    "kind": "user",
    "methods": {},
    "version": 1
  },
  "storageLayout": {
    "storage": [
      {
        "astId": 3,
        "contract": "contracts/ServiceContract.sol:ServiceContract",
        "label": "owner",
        "offset": 0,
        "slot": "0",
        "type": "t_address"
      },
      {
        "astId": 5,
        "contract": "contracts/ServiceContract.sol:ServiceContract",
        "label": "deployer",
        "offset": 0,
        "slot": "1",
        "type": "t_address"
      },
      {
        "astId": 8,
        "contract": "contracts/ServiceContract.sol:ServiceContract",
        "label": "listingsArray",
        "offset": 0,
        "slot": "2",
        "type": "t_array(t_string_storage)dyn_storage"
      },
      {
        "astId": 13,
        "contract": "contracts/ServiceContract.sol:ServiceContract",
        "label": "services",
        "offset": 0,
        "slot": "3",
        "type": "t_mapping(t_string_memory_ptr,t_struct(ServiceData)93_storage)"
      },
      {
        "astId": 17,
        "contract": "contracts/ServiceContract.sol:ServiceContract",
        "label": "serviceBuyers",
        "offset": 0,
        "slot": "4",
        "type": "t_mapping(t_string_memory_ptr,t_address)"
      },
      {
        "astId": 21,
        "contract": "contracts/ServiceContract.sol:ServiceContract",
        "label": "serviceLocations",
        "offset": 0,
        "slot": "5",
        "type": "t_mapping(t_address,t_string_storage)"
      },
      {
        "astId": 25,
        "contract": "contracts/ServiceContract.sol:ServiceContract",
        "label": "customRequirements",
        "offset": 0,
        "slot": "6",
        "type": "t_mapping(t_address,t_string_storage)"
      }
    ],
    "types": {
      "t_address": {
        "encoding": "inplace",
        "label": "address",
        "numberOfBytes": "20"
      },
      "t_address_payable": {
        "encoding": "inplace",
        "label": "address payable",
        "numberOfBytes": "20"
      },
      "t_array(t_string_storage)dyn_storage": {
        "base": "t_string_storage",
        "encoding": "dynamic_array",
        "label": "string[]",
        "numberOfBytes": "32"
      },
      "t_bool": {
        "encoding": "inplace",
        "label": "bool",
        "numberOfBytes": "1"
      },
      "t_mapping(t_address,t_string_storage)": {
        "encoding": "mapping",
        "key": "t_address",
        "label": "mapping(address => string)",
        "numberOfBytes": "32",
        "value": "t_string_storage"
      },
      "t_mapping(t_string_memory_ptr,t_address)": {
        "encoding": "mapping",
        "key": "t_string_memory_ptr",
        "label": "mapping(string => address)",
        "numberOfBytes": "32",
        "value": "t_address"
      },
      "t_mapping(t_string_memory_ptr,t_struct(ServiceData)93_storage)": {
        "encoding": "mapping",
        "key": "t_string_memory_ptr",
        "label": "mapping(string => struct ServiceContract.ServiceData)",
        "numberOfBytes": "32",
        "value": "t_struct(ServiceData)93_storage"
      },
      "t_string_memory_ptr": {
        "encoding": "bytes",
        "label": "string",
        "numberOfBytes": "32"
      },
      "t_string_storage": {
        "encoding": "bytes",
        "label": "string",
        "numberOfBytes": "32"
      },
      "t_struct(ServiceData)93_storage": {
        "encoding": "inplace",
        "label": "struct ServiceContract.ServiceData",
        "members": [
          {
            "astId": 70,
            "contract": "contracts/ServiceContract.sol:ServiceContract",
            "label": "title",
            "offset": 0,
            "slot": "0",
            "type": "t_string_storage"
          },
          {
            "astId": 72,
            "contract": "contracts/ServiceContract.sol:ServiceContract",
            "label": "description",
            "offset": 0,
            "slot": "1",
            "type": "t_string_storage"
          },
          {
            "astId": 74,
            "contract": "contracts/ServiceContract.sol:ServiceContract",
            "label": "location",
            "offset": 0,
            "slot": "2",
            "type": "t_string_storage"
          },
          {
            "astId": 76,
            "contract": "contracts/ServiceContract.sol:ServiceContract",
            "label": "completionRequirements",
            "offset": 0,
            "slot": "3",
            "type": "t_string_storage"
          },
          {
            "astId": 78,
            "contract": "contracts/ServiceContract.sol:ServiceContract",
            "label": "termsOfService",
            "offset": 0,
            "slot": "4",
            "type": "t_string_storage"
          },
          {
            "astId": 80,
            "contract": "contracts/ServiceContract.sol:ServiceContract",
            "label": "image",
            "offset": 0,
            "slot": "5",
            "type": "t_string_storage"
          },
          {
            "astId": 82,
            "contract": "contracts/ServiceContract.sol:ServiceContract",
            "label": "price",
            "offset": 0,
            "slot": "6",
            "type": "t_uint256"
          },
          {
            "astId": 84,
            "contract": "contracts/ServiceContract.sol:ServiceContract",
            "label": "timeValidity",
            "offset": 0,
            "slot": "7",
            "type": "t_uint32"
          },
          {
            "astId": 86,
            "contract": "contracts/ServiceContract.sol:ServiceContract",
            "label": "quantity",
            "offset": 4,
            "slot": "7",
            "type": "t_uint32"
          },
          {
            "astId": 88,
            "contract": "contracts/ServiceContract.sol:ServiceContract",
            "label": "creatorWallet",
            "offset": 8,
            "slot": "7",
            "type": "t_address_payable"
          },
          {
            "astId": 90,
            "contract": "contracts/ServiceContract.sol:ServiceContract",
            "label": "isCompleted",
            "offset": 28,
            "slot": "7",
            "type": "t_bool"
          },
          {
            "astId": 92,
            "contract": "contracts/ServiceContract.sol:ServiceContract",
            "label": "listingID",
            "offset": 0,
            "slot": "8",
            "type": "t_string_storage"
          }
        ],
        "numberOfBytes": "288"
      },
      "t_uint256": {
        "encoding": "inplace",
        "label": "uint256",
        "numberOfBytes": "32"
      },
      "t_uint32": {
        "encoding": "inplace",
        "label": "uint32",
        "numberOfBytes": "4"
      }
    }
  }
}